{
    "_format": "hh-sol-artifact-1",
    "contractName": "PaymentVerification",
    "sourceName": "contracts/base/PaymentVerification.sol",
    "abi": [
        {
            "inputs": [
                {
                    "internalType": "contract IMerkleRootStorage",
                    "name": "_merkleRootStorage",
                    "type": "address"
                }
            ],
            "stateMutability": "nonpayable",
            "type": "constructor"
        },
        {
            "inputs": [],
            "name": "merkleRootStorage",
            "outputs": [
                {
                    "internalType": "contract IMerkleRootStorage",
                    "name": "",
                    "type": "address"
                }
            ],
            "stateMutability": "view",
            "type": "function"
        },
        {
            "inputs": [
                {
                    "components": [
                        {
                            "internalType": "bytes32[]",
                            "name": "merkleProof",
                            "type": "bytes32[]"
                        },
                        {
                            "components": [
                                {
                                    "internalType": "bytes32",
                                    "name": "attestationType",
                                    "type": "bytes32"
                                },
                                {
                                    "internalType": "bytes32",
                                    "name": "sourceId",
                                    "type": "bytes32"
                                },
                                {
                                    "internalType": "uint64",
                                    "name": "votingRound",
                                    "type": "uint64"
                                },
                                {
                                    "internalType": "uint64",
                                    "name": "lowestUsedTimestamp",
                                    "type": "uint64"
                                },
                                {
                                    "components": [
                                        {
                                            "internalType": "bytes32",
                                            "name": "transactionId",
                                            "type": "bytes32"
                                        },
                                        {
                                            "internalType": "uint256",
                                            "name": "inUtxo",
                                            "type": "uint256"
                                        },
                                        {
                                            "internalType": "uint16",
                                            "name": "utxo",
                                            "type": "uint16"
                                        }
                                    ],
                                    "internalType": "struct Payment.RequestBody",
                                    "name": "requestBody",
                                    "type": "tuple"
                                },
                                {
                                    "components": [
                                        {
                                            "internalType": "uint64",
                                            "name": "blockNumber",
                                            "type": "uint64"
                                        },
                                        {
                                            "internalType": "uint64",
                                            "name": "blockTimestamp",
                                            "type": "uint64"
                                        },
                                        {
                                            "internalType": "bytes32",
                                            "name": "sourceAddressHash",
                                            "type": "bytes32"
                                        },
                                        {
                                            "internalType": "bytes32",
                                            "name": "receivingAddressHash",
                                            "type": "bytes32"
                                        },
                                        {
                                            "internalType": "bytes32",
                                            "name": "intendedReceivingAddressHash",
                                            "type": "bytes32"
                                        },
                                        {
                                            "internalType": "int256",
                                            "name": "spentAmount",
                                            "type": "int256"
                                        },
                                        {
                                            "internalType": "int256",
                                            "name": "intendedSpentAmount",
                                            "type": "int256"
                                        },
                                        {
                                            "internalType": "int256",
                                            "name": "receivedAmount",
                                            "type": "int256"
                                        },
                                        {
                                            "internalType": "int256",
                                            "name": "intendedReceivedAmount",
                                            "type": "int256"
                                        },
                                        {
                                            "internalType": "bytes32",
                                            "name": "standardPaymentReference",
                                            "type": "bytes32"
                                        },
                                        {
                                            "internalType": "bool",
                                            "name": "oneToOne",
                                            "type": "bool"
                                        },
                                        {
                                            "internalType": "uint8",
                                            "name": "status",
                                            "type": "uint8"
                                        }
                                    ],
                                    "internalType": "struct Payment.ResponseBody",
                                    "name": "responseBody",
                                    "type": "tuple"
                                }
                            ],
                            "internalType": "struct Payment.Response",
                            "name": "data",
                            "type": "tuple"
                        }
                    ],
                    "internalType": "struct Payment.Proof",
                    "name": "_proof",
                    "type": "tuple"
                }
            ],
            "name": "verifyPayment",
            "outputs": [
                {
                    "internalType": "bool",
                    "name": "_proved",
                    "type": "bool"
                }
            ],
            "stateMutability": "view",
            "type": "function"
        }
    ],
    "bytecode": "0x60a060405234801561001057600080fd5b50604051610c3a380380610c3a833981810160405281019061003291906100e1565b8073ffffffffffffffffffffffffffffffffffffffff1660808173ffffffffffffffffffffffffffffffffffffffff16815250505061010e565b600080fd5b600073ffffffffffffffffffffffffffffffffffffffff82169050919050565b600061009c82610071565b9050919050565b60006100ae82610091565b9050919050565b6100be816100a3565b81146100c957600080fd5b50565b6000815190506100db816100b5565b92915050565b6000602082840312156100f7576100f661006c565b5b6000610105848285016100cc565b91505092915050565b608051610b0b61012f60003960008181609001526101cf0152610b0b6000f3fe608060405234801561001057600080fd5b50600436106100365760003560e01c80633f66c4e31461003b57806377387b301461006b575b600080fd5b610055600480360381019061005091906102cf565b610089565b6040516100629190610333565b60405180910390f35b6100736101cd565b60405161008091906103cd565b60405180910390f35b60006101c67f000000000000000000000000000000000000000000000000000000000000000073ffffffffffffffffffffffffffffffffffffffff16633c70b3578460200160400160208101906100e09190610428565b6040518263ffffffff1660e01b81526004016100fc9190610490565b602060405180830381865afa158015610119573d6000803e3d6000fd5b505050506040513d601f19601f8201168201806040525081019061013d91906104e1565b8360200160405160200161015191906109a0565b6040516020818303038152906040528051906020012084806000019061017791906109cb565b80806020026020016040519081016040528093929190818152602001838360200280828437600081840152601f19601f820116905080830192505050505050506101f19092919063ffffffff16565b9050919050565b7f000000000000000000000000000000000000000000000000000000000000000081565b6000826101fe8584610208565b1490509392505050565b60008082905060005b84518110156102535761023e8286838151811061023157610230610a2e565b5b602002602001015161025e565b9150808061024b90610a8c565b915050610211565b508091505092915050565b6000818310610276576102718284610289565b610281565b6102808383610289565b5b905092915050565b600082600052816020526040600020905092915050565b600080fd5b600080fd5b600080fd5b600061028082840312156102c6576102c56102aa565b5b81905092915050565b6000602082840312156102e5576102e46102a0565b5b600082013567ffffffffffffffff811115610303576103026102a5565b5b61030f848285016102af565b91505092915050565b60008115159050919050565b61032d81610318565b82525050565b60006020820190506103486000830184610324565b92915050565b600073ffffffffffffffffffffffffffffffffffffffff82169050919050565b6000819050919050565b600061039361038e6103898461034e565b61036e565b61034e565b9050919050565b60006103a582610378565b9050919050565b60006103b78261039a565b9050919050565b6103c7816103ac565b82525050565b60006020820190506103e260008301846103be565b92915050565b600067ffffffffffffffff82169050919050565b610405816103e8565b811461041057600080fd5b50565b600081359050610422816103fc565b92915050565b60006020828403121561043e5761043d6102a0565b5b600061044c84828501610413565b91505092915050565b6000819050919050565b600061047a610475610470846103e8565b61036e565b610455565b9050919050565b61048a8161045f565b82525050565b60006020820190506104a56000830184610481565b92915050565b6000819050919050565b6104be816104ab565b81146104c957600080fd5b50565b6000815190506104db816104b5565b92915050565b6000602082840312156104f7576104f66102a0565b5b6000610505848285016104cc565b91505092915050565b60008135905061051d816104b5565b92915050565b6000610532602084018461050e565b905092915050565b610543816104ab565b82525050565b60006105586020840184610413565b905092915050565b610569816103e8565b82525050565b600082905092915050565b61058381610455565b811461058e57600080fd5b50565b6000813590506105a08161057a565b92915050565b60006105b56020840184610591565b905092915050565b6105c681610455565b82525050565b600061ffff82169050919050565b6105e3816105cc565b81146105ee57600080fd5b50565b600081359050610600816105da565b92915050565b600061061560208401846105f1565b905092915050565b610626816105cc565b82525050565b6060820161063d6000830183610523565b61064a600085018261053a565b5061065860208301836105a6565b61066560208501826105bd565b506106736040830183610606565b610680604085018261061d565b50505050565b600082905092915050565b6000819050919050565b6106a481610691565b81146106af57600080fd5b50565b6000813590506106c18161069b565b92915050565b60006106d660208401846106b2565b905092915050565b6106e781610691565b82525050565b6106f681610318565b811461070157600080fd5b50565b600081359050610713816106ed565b92915050565b60006107286020840184610704565b905092915050565b61073981610318565b82525050565b600060ff82169050919050565b6107558161073f565b811461076057600080fd5b50565b6000813590506107728161074c565b92915050565b60006107876020840184610763565b905092915050565b6107988161073f565b82525050565b61018082016107b06000830183610549565b6107bd6000850182610560565b506107cb6020830183610549565b6107d86020850182610560565b506107e66040830183610523565b6107f3604085018261053a565b506108016060830183610523565b61080e606085018261053a565b5061081c6080830183610523565b610829608085018261053a565b5061083760a08301836106c7565b61084460a08501826106de565b5061085260c08301836106c7565b61085f60c08501826106de565b5061086d60e08301836106c7565b61087a60e08501826106de565b506108896101008301836106c7565b6108976101008501826106de565b506108a6610120830183610523565b6108b461012085018261053a565b506108c3610140830183610719565b6108d1610140850182610730565b506108e0610160830183610778565b6108ee61016085018261078f565b50505050565b61026082016109066000830183610523565b610913600085018261053a565b506109216020830183610523565b61092e602085018261053a565b5061093c6040830183610549565b6109496040850182610560565b506109576060830183610549565b6109646060850182610560565b50610972608083018361056f565b61097f608085018261062c565b5061098d60e0830183610686565b61099a60e085018261079e565b50505050565b6000610260820190506109b660008301846108f4565b92915050565b600080fd5b600080fd5b600080fd5b600080833560016020038436030381126109e8576109e76109bc565b5b80840192508235915067ffffffffffffffff821115610a0a57610a096109c1565b5b602083019250602082023603831315610a2657610a256109c6565b5b509250929050565b7f4e487b7100000000000000000000000000000000000000000000000000000000600052603260045260246000fd5b7f4e487b7100000000000000000000000000000000000000000000000000000000600052601160045260246000fd5b6000610a9782610455565b91507fffffffffffffffffffffffffffffffffffffffffffffffffffffffffffffffff821415610aca57610ac9610a5d565b5b60018201905091905056fea2646970667358221220ddeed31e609922b098bd522f9bf3794ab3dbffce4c31b8086b611376159fbdfe64736f6c634300080b0033",
    "linkReferences": {},
    "deployedLinkReferences": {}
}